{
  "contractName": "BolaoEsportivo",
  "abi": [
    {
      "inputs": [],
      "payable": false,
      "stateMutability": "nonpayable",
      "type": "constructor"
    },
    {
      "anonymous": false,
      "inputs": [
        {
          "indexed": false,
          "name": "_addr",
          "type": "address"
        },
        {
          "indexed": false,
          "name": "newEmail",
          "type": "string"
        }
      ],
      "name": "userRegisted",
      "type": "event"
    },
    {
      "anonymous": false,
      "inputs": [
        {
          "indexed": false,
          "name": "pagante",
          "type": "address"
        },
        {
          "indexed": false,
          "name": "troco",
          "type": "uint256"
        }
      ],
      "name": "TrocoEnviado",
      "type": "event"
    },
    {
      "anonymous": false,
      "inputs": [
        {
          "indexed": false,
          "name": "remetente",
          "type": "address"
        },
        {
          "indexed": false,
          "name": "aposta",
          "type": "uint256"
        }
      ],
      "name": "ApostaRegistrada",
      "type": "event"
    },
    {
      "anonymous": false,
      "inputs": [
        {
          "indexed": false,
          "name": "remetente",
          "type": "address"
        },
        {
          "indexed": false,
          "name": "aposta",
          "type": "uint256"
        }
      ],
      "name": "ApostaDevolvida",
      "type": "event"
    },
    {
      "anonymous": false,
      "inputs": [
        {
          "indexed": false,
          "name": "remetente",
          "type": "address"
        },
        {
          "indexed": false,
          "name": "aposta",
          "type": "uint256"
        },
        {
          "indexed": false,
          "name": "mensagem",
          "type": "string"
        }
      ],
      "name": "ApostaNaoDevolvida",
      "type": "event"
    },
    {
      "anonymous": false,
      "inputs": [
        {
          "indexed": false,
          "name": "quantidadeGanhadores",
          "type": "uint256"
        },
        {
          "indexed": false,
          "name": "valorPremioTotal",
          "type": "uint256"
        },
        {
          "indexed": false,
          "name": "valorPremioResiduo",
          "type": "uint256"
        }
      ],
      "name": "bolaoEncerrado",
      "type": "event"
    },
    {
      "anonymous": false,
      "inputs": [
        {
          "indexed": false,
          "name": "resultado",
          "type": "uint256"
        }
      ],
      "name": "sorteioPostado",
      "type": "event"
    },
    {
      "anonymous": false,
      "inputs": [
        {
          "indexed": false,
          "name": "premioTotal",
          "type": "uint256"
        },
        {
          "indexed": false,
          "name": "premioIndividual",
          "type": "uint256"
        }
      ],
      "name": "PremiosEnviados",
      "type": "event"
    },
    {
      "anonymous": false,
      "inputs": [
        {
          "indexed": false,
          "name": "remetente",
          "type": "address"
        },
        {
          "indexed": false,
          "name": "premioIndividual",
          "type": "uint256"
        }
      ],
      "name": "PremiosEnviado",
      "type": "event"
    },
    {
      "anonymous": false,
      "inputs": [
        {
          "indexed": false,
          "name": "premioTotal",
          "type": "uint256"
        }
      ],
      "name": "PremioAcumulado",
      "type": "event"
    },
    {
      "constant": false,
      "inputs": [
        {
          "name": "_addr",
          "type": "address"
        },
        {
          "name": "_email",
          "type": "string"
        }
      ],
      "name": "setUser",
      "outputs": [],
      "payable": false,
      "stateMutability": "nonpayable",
      "type": "function"
    },
    {
      "constant": true,
      "inputs": [
        {
          "name": "_addr",
          "type": "address"
        }
      ],
      "name": "getUser",
      "outputs": [
        {
          "name": "",
          "type": "string"
        }
      ],
      "payable": false,
      "stateMutability": "view",
      "type": "function"
    },
    {
      "constant": false,
      "inputs": [
        {
          "name": "aposta",
          "type": "uint256"
        }
      ],
      "name": "registrarAposta",
      "outputs": [],
      "payable": true,
      "stateMutability": "payable",
      "type": "function"
    },
    {
      "constant": true,
      "inputs": [],
      "name": "detalharAposta",
      "outputs": [
        {
          "name": "",
          "type": "uint256"
        }
      ],
      "payable": false,
      "stateMutability": "view",
      "type": "function"
    },
    {
      "constant": false,
      "inputs": [],
      "name": "devolverAposta",
      "outputs": [],
      "payable": false,
      "stateMutability": "nonpayable",
      "type": "function"
    },
    {
      "constant": true,
      "inputs": [],
      "name": "getBalanceContrato",
      "outputs": [
        {
          "name": "",
          "type": "uint256"
        }
      ],
      "payable": false,
      "stateMutability": "view",
      "type": "function"
    },
    {
      "constant": true,
      "inputs": [],
      "name": "getBalanceApostador",
      "outputs": [
        {
          "name": "",
          "type": "uint256"
        }
      ],
      "payable": false,
      "stateMutability": "view",
      "type": "function"
    },
    {
      "constant": true,
      "inputs": [],
      "name": "getValorAposta",
      "outputs": [
        {
          "name": "",
          "type": "uint256"
        }
      ],
      "payable": false,
      "stateMutability": "view",
      "type": "function"
    },
    {
      "constant": true,
      "inputs": [],
      "name": "getValorPremioAcumulado",
      "outputs": [
        {
          "name": "",
          "type": "uint256"
        }
      ],
      "payable": false,
      "stateMutability": "view",
      "type": "function"
    },
    {
      "constant": true,
      "inputs": [],
      "name": "getQuantidadeExigidaApostadores",
      "outputs": [
        {
          "name": "",
          "type": "uint8"
        }
      ],
      "payable": false,
      "stateMutability": "view",
      "type": "function"
    },
    {
      "constant": true,
      "inputs": [],
      "name": "getQuantidadeSorteios",
      "outputs": [
        {
          "name": "",
          "type": "uint256"
        }
      ],
      "payable": false,
      "stateMutability": "view",
      "type": "function"
    },
    {
      "constant": true,
      "inputs": [
        {
          "name": "_id",
          "type": "uint256"
        }
      ],
      "name": "getSorteio",
      "outputs": [
        {
          "name": "_data",
          "type": "uint256"
        },
        {
          "name": "_numeroSorteado",
          "type": "uint256"
        },
        {
          "name": "_sorteador",
          "type": "address"
        },
        {
          "name": "_quantidadeApostas",
          "type": "uint256"
        },
        {
          "name": "_quantidadeGanhadores",
          "type": "uint256"
        },
        {
          "name": "_valorPremioTotal",
          "type": "uint256"
        },
        {
          "name": "_valorPremioResiduo",
          "type": "uint256"
        }
      ],
      "payable": false,
      "stateMutability": "view",
      "type": "function"
    },
    {
      "constant": true,
      "inputs": [],
      "name": "getUltimoSorteio",
      "outputs": [
        {
          "name": "_data",
          "type": "uint256"
        },
        {
          "name": "_numeroSorteado",
          "type": "uint256"
        },
        {
          "name": "_sorteador",
          "type": "address"
        },
        {
          "name": "_quantidadeApostas",
          "type": "uint256"
        },
        {
          "name": "_quantidadeGanhadores",
          "type": "uint256"
        },
        {
          "name": "_valorPremioTotal",
          "type": "uint256"
        },
        {
          "name": "_valorPremioResiduo",
          "type": "uint256"
        }
      ],
      "payable": false,
      "stateMutability": "view",
      "type": "function"
    },
    {
      "constant": true,
      "inputs": [],
      "name": "getQuantidadeApostas",
      "outputs": [
        {
          "name": "",
          "type": "uint256"
        }
      ],
      "payable": false,
      "stateMutability": "view",
      "type": "function"
    },
    {
      "constant": false,
      "inputs": [],
      "name": "encerrarBolao",
      "outputs": [],
      "payable": false,
      "stateMutability": "nonpayable",
      "type": "function"
    }
  ],
  "bytecode": "0x608060405260028060006101000a81548160ff021916908360ff160217905550670de0b6b3a7640000600455600260055534801561003c57600080fd5b50336000806101000a81548173ffffffffffffffffffffffffffffffffffffffff021916908373ffffffffffffffffffffffffffffffffffffffff16021790555042600181905550611cca806100936000396000f3fe6080604052600436106100db576000357c0100000000000000000000000000000000000000000000000000000000900463ffffffff16806301c5f571146100e05780630b5f85bf1461016157806338fac5611461018c5780633f1a51b8146101b75780636290a7371461029f5780636f77926b146102b6578063887c7d7714610380578063959d020a14610397578063975903ee146103c8578063b25a5f0b146103f3578063b4ec5c1e1461041e578063c6e882db146104c3578063d375daef146104ee578063ddc68b6214610519578063fc1ee08414610547575b600080fd5b3480156100ec57600080fd5b506100f5610572565b604051808881526020018781526020018673ffffffffffffffffffffffffffffffffffffffff1673ffffffffffffffffffffffffffffffffffffffff16815260200185815260200184815260200183815260200182815260200197505050505050505060405180910390f35b34801561016d57600080fd5b50610176610727565b6040518082815260200191505060405180910390f35b34801561019857600080fd5b506101a1610731565b6040518082815260200191505060405180910390f35b3480156101c357600080fd5b5061029d600480360360408110156101da57600080fd5b81019080803573ffffffffffffffffffffffffffffffffffffffff1690602001909291908035906020019064010000000081111561021757600080fd5b82018360208201111561022957600080fd5b8035906020019184600183028401116401000000008311171561024b57600080fd5b91908080601f016020809104026020016040519081016040528093929190818152602001838380828437600081840152601f19601f82011690508083019250505050505050919291929050505061073b565b005b3480156102ab57600080fd5b506102b4610838565b005b3480156102c257600080fd5b50610305600480360360208110156102d957600080fd5b81019080803573ffffffffffffffffffffffffffffffffffffffff169060200190929190505050610ccb565b6040518080602001828103825283818151815260200191508051906020019080838360005b8381101561034557808201518184015260208101905061032a565b50505050905090810190601f1680156103725780820380516001836020036101000a031916815260200191505b509250505060405180910390f35b34801561038c57600080fd5b50610395610dd1565b005b3480156103a357600080fd5b506103ac61142a565b604051808260ff1660ff16815260200191505060405180910390f35b3480156103d457600080fd5b506103dd611441565b6040518082815260200191505060405180910390f35b3480156103ff57600080fd5b50610408611465565b6040518082815260200191505060405180910390f35b34801561042a57600080fd5b506104576004803603602081101561044157600080fd5b8101908080359060200190929190505050611484565b604051808881526020018781526020018673ffffffffffffffffffffffffffffffffffffffff1673ffffffffffffffffffffffffffffffffffffffff16815260200185815260200184815260200183815260200182815260200197505050505050505060405180910390f35b3480156104cf57600080fd5b506104d8611591565b6040518082815260200191505060405180910390f35b3480156104fa57600080fd5b50610503611629565b6040518082815260200191505060405180910390f35b6105456004803603602081101561052f57600080fd5b8101908080359060200190929190505050611636565b005b34801561055357600080fd5b5061055c611b17565b6040518082815260200191505060405180910390f35b60008060008060008060008060068054905011151561061f576040517f08c379a00000000000000000000000000000000000000000000000000000000081526004018080602001828103825260288152602001807f4e656e68756d20736f727465696f20646973706f6ec3ad76656c20706172612081526020017f636f6e73756c746100000000000000000000000000000000000000000000000081525060400191505060405180910390fd5b610627611b70565b600660016006805490500381548110151561063e57fe5b906000526020600020906007020160e0604051908101604052908160008201548152602001600182015481526020016002820160009054906101000a900473ffffffffffffffffffffffffffffffffffffffff1673ffffffffffffffffffffffffffffffffffffffff1673ffffffffffffffffffffffffffffffffffffffff1681526020016003820154815260200160048201548152602001600582015481526020016006820154815250509050806000015181602001518260400151836060015184608001518560a001518660c0015197509750975097509750975097505090919293949596565b6000600454905090565b6000600354905090565b6000600a60008473ffffffffffffffffffffffffffffffffffffffff1673ffffffffffffffffffffffffffffffffffffffff168152602001908152602001600020905081816000019080519060200190610796929190611bc4565b507fac6ec2f3cde22b84535f0bb70aa5a3d4e365af8847b387e4598b86913b19bab583604051808273ffffffffffffffffffffffffffffffffffffffff1673ffffffffffffffffffffffffffffffffffffffff168152602001806020018281038252601d8152602001807f436f6e7461207265676973747261646120636f6d207375636573736f210000008152506020019250505060405180910390a1505050565b6000600760003373ffffffffffffffffffffffffffffffffffffffff1673ffffffffffffffffffffffffffffffffffffffff16815260200190815260200160002054111515610915576040517f08c379a00000000000000000000000000000000000000000000000000000000081526004018080602001828103825260248152602001807f566f63c3aa206ec3a36f2074656d20756d612061706f7374612072656769737481526020017f726164610000000000000000000000000000000000000000000000000000000081525060400191505060405180910390fd5b600260009054906101000a900460ff1660ff16600880549050101515610a15576040517f08c379a00000000000000000000000000000000000000000000000000000000081526004018080602001828103825260628152602001807f4ec3a36f20666f6920706f7373c3ad76656c206465766f6c766572206120737581526020017f612061706f7374612e204f20626f6cc3a36f206573706f727469766f20656e6381526020017f6f6e7472612d7365206665636861646f2070617261206465766f6c75c3a7c3b581526020017f657300000000000000000000000000000000000000000000000000000000000081525060800191505060405180910390fd5b60008090505b6008805490508160ff161015610cc857600060088260ff16815481101515610a3f57fe5b9060005260206000200160009054906101000a900473ffffffffffffffffffffffffffffffffffffffff1690503373ffffffffffffffffffffffffffffffffffffffff168173ffffffffffffffffffffffffffffffffffffffff161415610cba576008600160088054905003815481101515610ab757fe5b9060005260206000200160009054906101000a900473ffffffffffffffffffffffffffffffffffffffff1660088360ff16815481101515610af457fe5b9060005260206000200160006101000a81548173ffffffffffffffffffffffffffffffffffffffff021916908373ffffffffffffffffffffffffffffffffffffffff16021790555060088054801515610b4957fe5b6001900381819060005260206000200160006101000a81549073ffffffffffffffffffffffffffffffffffffffff02191690559055600760003373ffffffffffffffffffffffffffffffffffffffff1673ffffffffffffffffffffffffffffffffffffffff168152602001908152602001600020600090553373ffffffffffffffffffffffffffffffffffffffff166108fc6004549081150290604051600060405180830381858888f19350505050158015610c09573d6000803e3d6000fd5b507f31c95fd383b5dfcacb92547e0beb457ec1b8b1ae08e20580eb15e34b0c71450f33600760003373ffffffffffffffffffffffffffffffffffffffff1673ffffffffffffffffffffffffffffffffffffffff16815260200190815260200160002054604051808373ffffffffffffffffffffffffffffffffffffffff1673ffffffffffffffffffffffffffffffffffffffff1681526020018281526020019250505060405180910390a150610cc8565b508080600101915050610a1b565b50565b6060610cd5611c44565b600a60008473ffffffffffffffffffffffffffffffffffffffff1673ffffffffffffffffffffffffffffffffffffffff16815260200190815260200160002060206040519081016040529081600082018054600181600116156101000203166002900480601f016020809104026020016040519081016040528092919081815260200182805460018160011615610100020316600290048015610db95780601f10610d8e57610100808354040283529160200191610db9565b820191906000526020600020905b815481529060010190602001808311610d9c57829003601f168201915b50505050508152505090508060000151915050919050565b600260009054906101000a900460ff1660ff1660088054905010151515610eac576040517f08c379a00000000000000000000000000000000000000000000000000000000081526004018080602001828103825260578152602001807f4ec3a36f20666f6920706f7373c3ad76656c20656e6365727261722e204f206281526020017f6f6cc3a36f206573706f727469766f2c2061696e64612c20656e636f6e74726181526020017f2d73652061626572746f20706172612061706f7374617300000000000000000081525060600191505060405180910390fd5b6000610eb6611b36565b90507f4775fcac42146c225490124889f832d7ee3208102670bc3ad5861e9bf13901a1816040518082815260200191505060405180910390a160008090505b6008805490508160ff16101561108157600060088260ff16815481101515610f1957fe5b9060005260206000200160009054906101000a900473ffffffffffffffffffffffffffffffffffffffff16905082600760008373ffffffffffffffffffffffffffffffffffffffff1673ffffffffffffffffffffffffffffffffffffffff16815260200190815260200160002054141561103057600960088360ff16815481101515610fa157fe5b9060005260206000200160009054906101000a900473ffffffffffffffffffffffffffffffffffffffff1690806001815401808255809150509060018203906000526020600020016000909192909190916101000a81548173ffffffffffffffffffffffffffffffffffffffff021916908373ffffffffffffffffffffffffffffffffffffffff160217905550505b600760008273ffffffffffffffffffffffffffffffffffffffff1673ffffffffffffffffffffffffffffffffffffffff16815260200190815260200160002060009055508080600101915050610ef5565b50600060045460088054905002600354019050600080905060006009805490501115156110ed57816003819055507f463e963425c446345199ec897e1f3d25b931e08bffed402fbbe4a3d2bc8b4ccf6003546040518082815260200191505060405180910390a16112b6565b600980549050828115156110fd57fe5b069050600060098054905082840381151561111457fe5b0490508160038190555060008090505b6009805490508160ff16101561127457600060098260ff1681548110151561114857fe5b9060005260206000200160009054906101000a900473ffffffffffffffffffffffffffffffffffffffff16905060098260ff1681548110151561118757fe5b9060005260206000200160006101000a81549073ffffffffffffffffffffffffffffffffffffffff02191690558073ffffffffffffffffffffffffffffffffffffffff166108fc849081150290604051600060405180830381858888f193505050501580156111fa573d6000803e3d6000fd5b507fdef7afb568bccbd9f3f9bcd9314f5ed6317794c9ceb79cc256074123067b40428184604051808373ffffffffffffffffffffffffffffffffffffffff1673ffffffffffffffffffffffffffffffffffffffff1681526020018281526020019250505060405180910390a1508080600101915050611124565b507f2a1809b848c81c15cd946983a1b39512a6cb5dbc2c723e978b1640bd5faf06fc8382604051808381526020018281526020019250505060405180910390a1505b600660e0604051908101604052804281526020018581526020013373ffffffffffffffffffffffffffffffffffffffff168152602001600880549050815260200160098054905081526020018481526020018381525090806001815401808255809150509060018203906000526020600020906007020160009091929091909150600082015181600001556020820151816001015560408201518160020160006101000a81548173ffffffffffffffffffffffffffffffffffffffff021916908373ffffffffffffffffffffffffffffffffffffffff160217905550606082015181600301556080820151816004015560a0820151816005015560c082015181600601555050507f69c9bb89b5697bc5d558cc004c51d39357c6bc03be76439224eb6ef3e7ed3d8c600980549050838360405180848152602001838152602001828152602001935050505060405180910390a1600860006114179190611c58565b600960006114259190611c58565b505050565b6000600260009054906101000a900460ff16905090565b600080600880549050111561145d576008805490509050611462565b600090505b90565b60003073ffffffffffffffffffffffffffffffffffffffff1631905090565b6000806000806000806000611497611b70565b6006898154811015156114a657fe5b906000526020600020906007020160e0604051908101604052908160008201548152602001600182015481526020016002820160009054906101000a900473ffffffffffffffffffffffffffffffffffffffff1673ffffffffffffffffffffffffffffffffffffffff1673ffffffffffffffffffffffffffffffffffffffff1681526020016003820154815260200160048201548152602001600582015481526020016006820154815250509050806000015181602001518260400151836060015184608001518560a001518660c00151975097509750975097509750975050919395979092949650565b600080600760003373ffffffffffffffffffffffffffffffffffffffff1673ffffffffffffffffffffffffffffffffffffffff16815260200190815260200160002054111561162157600760003373ffffffffffffffffffffffffffffffffffffffff1673ffffffffffffffffffffffffffffffffffffffff168152602001908152602001600020549050611626565b600090505b90565b6000600680549050905090565b600260009054906101000a900460ff1660ff16600880549050101515611710576040517f08c379a00000000000000000000000000000000000000000000000000000000081526004018080602001828103825260518152602001807f4ec3a36f20666f6920706f7373c3ad76656c207265676973747261722061207381526020017f75612061706f7374612e204f20626f6cc3a36f206573706f727469766f20656e81526020017f636f6e7472612d7365206665636861646f00000000000000000000000000000081525060600191505060405180910390fd5b60018110158015611722575060028111155b15156117bc576040517f08c379a000000000000000000000000000000000000000000000000000000000815260040180806020018281038252602d8152602001807f566f63c3aa2074656d20717565206573636f6c68657220756d206ec3ba6d657281526020017f6f20656e7472652031206520320000000000000000000000000000000000000081525060400191505060405180910390fd5b6000600760003373ffffffffffffffffffffffffffffffffffffffff1673ffffffffffffffffffffffffffffffffffffffff16815260200190815260200160002054141515611899576040517f08c379a00000000000000000000000000000000000000000000000000000000081526004018080602001828103825260318152602001807f4170656e617320756d612061706f73746120706f646572c3a12073657220656e81526020017f766961646120706f7220736f727465696f00000000000000000000000000000081525060400191505060405180910390fd5b6004543410151515611939576040517f08c379a00000000000000000000000000000000000000000000000000000000081526004018080602001828103825260258152602001807f41207461786120706172612061706f7374617220c3a92064652031204945534281526020017f457468657200000000000000000000000000000000000000000000000000000081525060400191505060405180910390fd5b60006004543403905060008111156119fe573373ffffffffffffffffffffffffffffffffffffffff166108fc829081150290604051600060405180830381858888f19350505050158015611991573d6000803e3d6000fd5b507fb2f6b324486033af62b73731e627bef2c0b15dbfb1746f6beb433455e40cb0913382604051808373ffffffffffffffffffffffffffffffffffffffff1673ffffffffffffffffffffffffffffffffffffffff1681526020018281526020019250505060405180910390a15b81600760003373ffffffffffffffffffffffffffffffffffffffff1673ffffffffffffffffffffffffffffffffffffffff1681526020019081526020016000208190555060083390806001815401808255809150509060018203906000526020600020016000909192909190916101000a81548173ffffffffffffffffffffffffffffffffffffffff021916908373ffffffffffffffffffffffffffffffffffffffff160217905550507f45c715c57cc51c44547e6634b166137d49512fc48e6e92c4581468fb5718f2d63383604051808373ffffffffffffffffffffffffffffffffffffffff1673ffffffffffffffffffffffffffffffffffffffff1681526020018281526020019250505060405180910390a15050565b60003373ffffffffffffffffffffffffffffffffffffffff1631905090565b6000806001600554600143034060019004811515611b5057fe5b06019050600081141515611b675780915050611b6d565b60009150505b90565b60e0604051908101604052806000815260200160008152602001600073ffffffffffffffffffffffffffffffffffffffff168152602001600081526020016000815260200160008152602001600081525090565b828054600181600116156101000203166002900490600052602060002090601f016020900481019282601f10611c0557805160ff1916838001178555611c33565b82800160010185558215611c33579182015b82811115611c32578251825591602001919060010190611c17565b5b509050611c409190611c79565b5090565b602060405190810160405280606081525090565b5080546000825590600052602060002090810190611c769190611c79565b50565b611c9b91905b80821115611c97576000816000905550600101611c7f565b5090565b9056fea165627a7a72305820fc27926b4fa9087649bd5079e84f28de41a4208ac4c1afec8cd76085737fe8dc0029",
  "source": "pragma solidity ^0.5.0;\r\n\r\ncontract BolaoEsportivo {\r\n    address  _dono;\r\n    uint256  _inicio;\r\n    uint8  _quantidadeExigidaApostadores = 2;\r\n    uint256  _valorPremioAcumulado;\r\n    uint256  _valorAposta = 1000000000000000000;\r\n    uint quantidadePossibilidades = 2;\r\n\r\n    struct User {\r\n        string email;\r\n    }\r\n\r\n    struct Sorteio {\r\n        uint256 _data;\r\n        uint256 _numeroSorteado;\r\n        address _sorteador;\r\n        uint256 _quantidadeApostas;\r\n        uint256 _quantidadeGanhadores;\r\n        uint256 _valorPremioTotal;\r\n        uint256 _valorPremioResiduo;\r\n    }\r\n    \r\n    Sorteio[]  _sorteios;\r\n    \r\n    mapping (address => uint256) _apostas;\r\n    address payable[] _apostadores;\r\n    address payable[] _ganhadores;\r\n\r\n    mapping (address => User) users;\r\n\r\n    event userRegisted(address _addr, string newEmail);\r\n    event TrocoEnviado(address pagante, uint256 troco);\r\n    event ApostaRegistrada(address remetente, uint256 aposta);\r\n    event ApostaDevolvida(address remetente, uint256 aposta);\r\n    event ApostaNaoDevolvida(address remetente, uint256 aposta, string mensagem);\r\n    event bolaoEncerrado(uint256 quantidadeGanhadores, uint256 valorPremioTotal, uint256 valorPremioResiduo);\r\n    event sorteioPostado(uint256 resultado);\r\n    event PremiosEnviados(uint256 premioTotal, uint256 premioIndividual);\r\n    event PremiosEnviado(address remetente, uint256 premioIndividual);\r\n    event PremioAcumulado(uint256 premioTotal);\r\n\r\n    constructor() public {\r\n        _dono = msg.sender;\r\n        _inicio = now;\r\n    }\r\n\r\n    function setUser(address _addr, string memory _email) public {\r\n        User storage user = users[_addr];\r\n        user.email = _email;\r\n        emit userRegisted(_addr, \"Conta registrada com sucesso!\");\r\n    }\r\n\r\n    function getUser(address _addr) public view returns(string memory) {\r\n        User memory user = users[_addr];\r\n        return (user.email);\r\n    }\r\n    \r\n    function registrarAposta(uint256 aposta) payable public {\r\n        require (_apostadores.length < _quantidadeExigidaApostadores, \"No foi possvel registrar a sua aposta. O bolo esportivo encontra-se fechado\");\r\n        require (aposta >= 1 && aposta <=2, \"Voc tem que escolher um nmero entre 1 e 2\");\r\n        require (_apostas[msg.sender] == 0, \"Apenas uma aposta poder ser enviada por sorteio\");\r\n        require (msg.value >= _valorAposta, \"A taxa para apostar  de 1 IESBEther\");\r\n\r\n        uint256 troco = msg.value - _valorAposta;\r\n        \r\n        if (troco > 0) {\r\n            msg.sender.transfer(troco);\r\n            emit TrocoEnviado(msg.sender, troco);\r\n        }\r\n        \r\n        _apostas[msg.sender] = aposta;\r\n        _apostadores.push(msg.sender);\r\n        \r\n        emit ApostaRegistrada(msg.sender, aposta);\r\n    }\r\n\r\n    function detalharAposta() view public returns(uint256) {\r\n        if(_apostas[msg.sender] > 0)\r\n            return _apostas[msg.sender];\r\n        else\r\n            return 0;\r\n    }\r\n\r\n    function devolverAposta() public {\r\n        require (_apostas[msg.sender] > 0, \"Voc no tem uma aposta registrada\");\r\n        require (_apostadores.length < _quantidadeExigidaApostadores, \"No foi possvel devolver a sua aposta. O bolo esportivo encontra-se fechado para devolues\");\r\n        \r\n        for(uint8 p=0; p < _apostadores.length; p++) {\r\n            address apostador = _apostadores[p];\r\n            if (apostador == msg.sender) {\r\n                _apostadores[p] = _apostadores[_apostadores.length - 1];\r\n                _apostadores.pop();            \r\n                delete _apostas[msg.sender];\r\n                msg.sender.transfer(_valorAposta);\r\n                emit ApostaDevolvida(msg.sender, _apostas[msg.sender]);\r\n                break;\r\n            }\r\n        }\r\n    }\r\n    \r\n    function getBalanceContrato() view public returns(uint256) {\r\n        return address(this).balance;\r\n    }    \r\n\r\n    function getBalanceApostador() view public returns(uint256) {\r\n        return address(msg.sender).balance;\r\n    }    \r\n\r\n    function getValorAposta() view public returns(uint256) {\r\n        return _valorAposta;\r\n    }    \r\n\r\n    function getValorPremioAcumulado() view public returns(uint256) {\r\n        return _valorPremioAcumulado;\r\n    }    \r\n\r\n    function getQuantidadeExigidaApostadores() view public returns(uint8) {\r\n        return _quantidadeExigidaApostadores;\r\n    }  \r\n    \r\n    function getQuantidadeSorteios() view public returns(uint256) {\r\n        return _sorteios.length;\r\n    }  \r\n    \r\n    function getSorteio(uint _id) public view returns (uint256 _data, uint256 _numeroSorteado, address _sorteador, uint256 _quantidadeApostas, uint256 _quantidadeGanhadores, uint256 _valorPremioTotal, uint256 _valorPremioResiduo) {\r\n        Sorteio memory sorteio = _sorteios[_id];\r\n        return (sorteio._data, sorteio._numeroSorteado, sorteio._sorteador, sorteio._quantidadeApostas, sorteio._quantidadeGanhadores, sorteio._valorPremioTotal, sorteio._valorPremioResiduo);\r\n    }\r\n\r\n    function getUltimoSorteio() public view returns (uint256 _data, uint256 _numeroSorteado, address _sorteador, uint256 _quantidadeApostas, uint256 _quantidadeGanhadores, uint256 _valorPremioTotal, uint256 _valorPremioResiduo) {\r\n       require (_sorteios.length > 0, \"Nenhum sorteio disponvel para consulta\");\r\n         \r\n       Sorteio memory sorteio = _sorteios[_sorteios.length-1];\r\n       return (sorteio._data, sorteio._numeroSorteado, sorteio._sorteador, sorteio._quantidadeApostas, sorteio._quantidadeGanhadores, sorteio._valorPremioTotal, sorteio._valorPremioResiduo);\r\n    }\r\n\r\n    function getQuantidadeApostas() view public returns(uint256) {\r\n        if(_apostadores.length > 0)\r\n            return _apostadores.length;\r\n        else\r\n            return 0;\r\n    }    \r\n\r\n    function getNumeroSorteado() view private returns(uint256) {\r\n        uint numeroSorteado = uint(blockhash(block.number-1))%quantidadePossibilidades + 1;\r\n        \r\n        if(numeroSorteado != 0)\r\n            return numeroSorteado;\r\n        else\r\n            return 0;\r\n    }    \r\n\r\n    function encerrarBolao() public {\r\n        require(_apostadores.length >= _quantidadeExigidaApostadores, \"No foi possvel encerrar. O bolo esportivo, ainda, encontra-se aberto para apostas\");\r\n\r\n        uint256 numeroSorteado = getNumeroSorteado();\r\n        emit sorteioPostado(numeroSorteado);\r\n        \r\n        for(uint8 p=0; p < _apostadores.length; p++) {\r\n            address apostador = _apostadores[p];\r\n            if (_apostas[apostador] == numeroSorteado) {\r\n                _ganhadores.push(_apostadores[p]);\r\n            }\r\n            delete _apostas[apostador];\r\n        }\r\n        \r\n        uint256 valorPremioTotal = (_valorPremioAcumulado + (_apostadores.length * _valorAposta));\r\n        uint256 valorPremioResiduo = 0;\r\n       \r\n        if (_ganhadores.length <= 0) {\r\n            _valorPremioAcumulado = valorPremioTotal;\r\n            emit PremioAcumulado(_valorPremioAcumulado);\r\n        } else {\r\n            valorPremioResiduo = valorPremioTotal % _ganhadores.length;\r\n            uint256 valorPremioIndividual = ((valorPremioTotal - valorPremioResiduo) / _ganhadores.length);\r\n            _valorPremioAcumulado = valorPremioResiduo;\r\n            \r\n            for(uint8 p=0; p < _ganhadores.length; p++) {\r\n                address payable ganhador = _ganhadores[p];\r\n                delete _ganhadores[p];\r\n                ganhador.transfer(valorPremioIndividual);\r\n                emit PremiosEnviado(ganhador, valorPremioIndividual);\r\n            }\r\n            \r\n            emit PremiosEnviados(valorPremioTotal, valorPremioIndividual);\r\n        }\r\n\r\n        _sorteios.push(Sorteio({\r\n            _data: now,\r\n            _numeroSorteado: numeroSorteado,\r\n            _sorteador: msg.sender,\r\n            _quantidadeApostas: _apostadores.length,\r\n            _quantidadeGanhadores: _ganhadores.length,\r\n            _valorPremioTotal:valorPremioTotal,\r\n            _valorPremioResiduo: valorPremioResiduo\r\n        }));\r\n        \r\n        emit bolaoEncerrado(_ganhadores.length, valorPremioTotal, valorPremioResiduo);\r\n\r\n        delete _apostadores;\r\n        delete _ganhadores;\r\n     }\r\n}",
  "sourcePath": "D:\\iesb-blockchain\\dapp\\contracts\\BolaoEsportivo.sol",
  "compiler": {
    "name": "solc",
    "version": "0.5.0+commit.1d4f565a.Emscripten.clang"
  },
  "schemaVersion": "3.2.0",
  "updatedAt": "2020-06-10T10:27:30.144Z",
  "networkType": "ethereum",
  "devdoc": {
    "methods": {}
  },
  "userdoc": {
    "methods": {}
  }
}